:020000040100F9
:1000000078900021316502010312030105650201A8
:100010000565020105650201056502010000000099
:10002000000000000000000000000000CD5D0201A3
:100030000565020100000000655D02010565020121
:10004000595E0201595E0201595E0201595E0201C8
:10005000595E0201595E0201595E0201595E0201B8
:10006000EB180301595E0201595E0201595E02015B
:10007000B7180301595E0201595E0201595E02017F
:10008000595E0201D1180301595E0201595E020155
:10009000595E0201595E0201595E0201595E020178
:1000A000595E0201E9110301595E0201595E020124
:0800B000595E0201E911030190
:1000B80053B94AB9002908BF00281CBF4FF0FF31C7
:1000C8004FF0FF3000F00CB8ADF1080C6DE904CE2C
:1000D8001DF080FDDDF804E0DDE9022304B070477F
:1000E800704700BF2DE9F00791E8F807B2E8021061
:1000F8005B1854EB0C04B2E802104D4156EB0C06A9
:10010800B2E802104F4158EB0C08B2E8021059EB64
:1001180001095AEB0C0A80E8F80780410130BDE874
:10012800F00770472DE9F00791E8F807B2E80210E8
:100138005B1A74EB0C04B2E802108D4176EB0C06E6
:10014800B2E802108F4178EB0C08B2E8021079EBA4
:1001580001097AEB0C0A80E8F80780414042BDE8C3
:10016800F00770472DE9F007524290E87800B1E8AF
:1001780080071740DB1918EA020854EB080419EA4B
:10018800020955EB09051AEA020A56EB0A0678C075
:1001980090E87800B1E8800717407B4118EA020828
:1001A80054EB080419EA020955EB09051AEA020A90
:1001B80056EB0A0678C080410130BDE8F007704769
:1001C8002DE9F007524290E87800B1E8800717401F
:1001D800DB1B18EA020874EB080419EA020975EB3C
:1001E80009051AEA020A76EB0A0678C090E8780050
:1001F800B1E880071740BB4118EA020874EB08040D
:1002080019EA020975EB09051AEA020A76EB0A06E9
:1002180078C080414042BDE8F00770472DE9F00101
:1002280052424FF0040890E8300091E8C000A31B48
:100238001340E41AF618EB1B1340ED1AFF1830C0F0
:10024800C0C1B8F10108EED1BDE8F001704700BFA8
:1002580000B592E8DC072DE9DC07B1E8805702B465
:10026800A7FB02510A95A8FB020B09180020E7FB1F
:1002780003105BEB000B00204041E9FB02B00B913F
:10028800A8FB0351401800214941EAFB02011BEB7E
:10029800050B0025E7FB04B568410025E7FB0605CB
:1002A800694100256D41E8FB0615CDF830B0A9FB82
:1002B80003B689190026EAFB031675410026764124
:1002C800ECFB035610EB0B005FF0000BE8FB040B94
:1002D80051EB0B015FF0000BE9FB041B55EB0B0521
:1002E8005FF0000BEAFB045B56EB0B065FF0000BBC
:1002F8005BEB0B0BECFB046B0D90ACFB0230059C2D
:100308002D180020EEFB025046410020E9FB046056
:100318005BEB000B00204041EAFB04B05B180021B6
:10032800E7FB04314D410021E8FB0451069C4E4196
:100338000021E8FB04615BEB010B0021E9FB04B140
:10034800484100214941EAFB04010E93A7FB04320E
:10035800079CB6180022E7FB04625BEB020B002245
:10036800E8FB04B250410022E9FB0402514100229B
:100378005241EAFB0412049CED180023E9FB0453E4
:100388005E410023EAFB0463089C5BEB030B00233C
:10039800E7FB04B358410023E8FB04035941002359
:1003A800E9FB04135A4100235B41EAFB04230F9540
:1003B8005DF8049B99E80006DDF80080A9FB085465
:1003C8001BEB040B0024EAFB08B4DDF81080604145
:1003D8000024ECFB080461410024EEFB0814624190
:1003E8000024E9FB0824634100246441EAFB083443
:1003F800DDF8048076190025EEFB08655BEB050B3C
:100408000025E9FB08B568410025EAFB0805DDF889
:10041800148069410025ECFB08156A410025EEFBB4
:1004280008256B410025E9FB08356C4100256D4125
:10043800EAFB08450F96DDF80880AEFB08768019C0
:100448000026E9FB080671410026EAFB0816DDF8DC
:10045800188072410026ECFB082673410026EEFB4B
:10046800083674410026E9FB0846754100267641A6
:10047800EAFB0856DDF80C801BEB070B0027ECFBAA
:1004880008B778410027EEFB080779410027E9FB08
:1004980008177A410027EAFB0827DDF81C807B4112
:1004A8000027ECFB08377C410027EEFB08477D411D
:1004B8000027E9FB08577E4100277F41EAFB0867D0
:1004C80008B000BD2DE9F14F87B0FFF7C1FEDDF898
:1004D8001C8008F1200888E8FF00FFBC87E87F0837
:1004E800BDE8F08F00B591E84C57A2FB024101949A
:1004F800A2FB034524190020E2FB06506D417F4111
:10050800641802940021E2FB0801A3FB034B654138
:1005180003950024E3FB060440417F4109190024A8
:100528006441E2FB0914FF0750EB0B00049000251F
:10053800E2FB0A455FF0000BE3FB081B49415FEA59
:10054800370714EB0B045FF0000BE3FB094B55EB8B
:100558000B055FF0000B5BEB0B0BE2FB0C5BFF0F7B
:100568000020E2FB0EB000225141E6FB0612059185
:100578000021E6FB084164417F416D180021E3FB3F
:100588000A515BEB010B0021E3FB0CB14841002150
:100598004941E3FB0E010023E6FB09531BEB030B68
:1005A8000023E6FB0AB358410023E6FB0C0359413C
:1005B80000235B41E6FB0E13FF07544106946D418F
:1005C8007F41A8FB0826554107950022E8FB09B2A0
:1005D8005BEB0B0B7F4180180022E8FB0A025141BC
:1005E8000022E8FB0C125A4100235B41E8FB0E2372
:1005F8000024E9FB0E340025E9FB0A1552190025F1
:10060800E9FB0C256B410025EAFB0C356C41002504
:100618006D41EAFB0E45FF075BEB060B0026ECFB82
:100628000E564041494152415B4164416D4176411A
:10063800AEFB0EE848F100087F00A9FB0979784174
:1006480051EB0901AAFB0A7A7A4153EB0A03ACFB86
:100658000C7C7C4155EB0C0556EB0E0648F1000767
:1006680000BD00BF2DE9F14F87B0FFF73BFFDDF874
:100678001C8008F1200888E8FF00FFBC87E87F0895
:10068800BDE8F08F30B44FF0000310F8014B11F8BB
:10069800015B013A84EA050443EA0403F5D1A3F1B6
:1006A80001034FEAD37030BC704700BF4FF000031E
:1006B80010F8012B013943EA0203F9D1A3F1010330
:1006C8004FEAD370704700BF30B411F8014B12F8ED
:1006D800015B6C4000F8014B013BF6D130BC704720
:1006E8002DE9F00791E8F807B2E802105B1854EB1F
:1006F8000C04B2E802104D4156EB0C06B2E80210A9
:100708004F4158EB0C08B2E8021059EB01095AEBBB
:100718000C0A8941B3F1FF3374F1FF3475F1FF35E9
:1007280076F1000677F1000778F1000879F1010900
:100738007AF1FF3A51F100015B184C414D4156F1F5
:10074800000657F1000758F1000859EBD1795AEB28
:10075800010A80E8F807BDE8F00770472DE9F007BF
:1007680091E8F807B2E802105B1A74EB0C04B2E8DF
:1007780002108D4176EB0C06B2E802108F4178EB3F
:100788000C08B2E8021079EB01097AEB0C0A8941EE
:100798005B184C414D4156F1000657F1000758F1DE
:1007A800000859EBD1795AEB010A80E8F807BDE84F
:1007B800F007704718EB040859EB05095AEB060ACD
:1007C8005BEB070B5FF0000C4CF1000C18EB050815
:1007D80059EB06095AEB070A5BEB070B50EB0C00C9
:1007E8005FF0000C51EB0C0152EB0C0263414CF131
:1007F800000CB8EB070879F100097AF1000A7BEBE5
:10080800040BA841B141A241B3416CF1000CBBEB10
:10081800050BB041B941AA41BB416CF1000C4CF049
:1008280001068CF0020718EB060859EB6C095AEB25
:100838006C0A7BEB6C0B70EB6C0471EB6C0572EB68
:10084800670653EB6C076CEB6C0C18EB0C0059EB60
:100858000C015AEB0C025BF1000354F1000455F152
:10086800000556EBDC7657EB0C0770472DE9F14F86
:1008780087B0FFF7EDFCDDF81080DDF81490DDF8A7
:1008880018A0FFF797FFBDE8000FFFF793FF03B02D
:100898005DF8048B88E8FF00BDE8F08F2DE9F14F83
:1008A80087B0FFF71FFEDDF81080DDF81490DDF843
:1008B80018A0FFF77FFFBDE8000FFFF77BFF03B02D
:1008C8005DF8048B88E8FF00BDE8F08F2DE9F0475C
:1008D800A44D86B00023C41DEA7B07460E4624F0CB
:1008E8000704CDE903332B788DF812206A7D8DF843
:1008F8000D308DF814206B78AA7D8DF80E308DF8A8
:100908001520AB78EA7D8DF80F308DF81620EB783E
:100918002A7E8DF810308DF817202B79AA7F8DF854
:1009280011300AB18DF81330002E03A94FF00008DA
:100938000CBF2046002000F0FBFE95F800906B7875
:100948000444C24699445FFA89F95FFA88F34B4533
:10095800C0F0F3800334002E4946524624F00304C5
:1009680014BF0020204601F0C9F9A978044471B1E8
:10097800E01CEB78EA7B002E20F003041A4414BF35
:10098800002020466B89D2B201F056FB0444EB7F6D
:100998008BB1697A79B195F82030E01C002B20F0F2
:1009A800030414BFFF222522002E0CBF204600207E
:1009B80001F0D8FC0444297B79B1AB781BB9EB7FF3
:1009C8005BB16B7A4BB1E01D002E20F0070414BF19
:1009D8000020204607F0EAFD0444634B1B685BB126
:1009E800297949B1E01C002E6A7B20F0030414BF6A
:1009F80000202046984704445C4B1B6853B1A97BF0
:100A080041B1E01C002E20F0030414BF0020204652
:100A180098470444564BD3F80080B8F1000F0FD024
:100A2800E97B69B1E01C002EAB7C20F0030418BF01
:100A38000020009308BF20466B7C2A7CC0470444F2
:100A4800AB7F63B1297951B1E01C002E2A7D20F0DB
:100A5800030414BF0020204601F0E2FC0444697E30
:100A6800002974D0E01D002E4FF4877220F007088B
:100A780014BF002040461EF00AFF08EB0004A97EC0
:100A8800002966D0E01D002E4FF0FB0220F0070978
:100A980014BF002048461EF0FAFE09EB000426B9F0
:100AA800FB224946404618F0CFFDE97E002952D086
:100AB8002B7F002B4FD0E01D002E4FF4827220F0C8
:100AC800070814BF002040461EF0E1FE08EB0004B2
:100AD8002B7E0334A97D287F24F00704194433466C
:100AE80044F00404C9B2224601F0E8FC04443EB9CB
:100AF800404618F0E3FD4FF48071E87E18F0E4FDFD
:100B08006B6A13B106B96C622834697F89B1E01D3C
:100B1800002E42F2107220F0070514BF002028466C
:100B28001EF0B5FE2C1826B942F21071284618F0AE
:100B3800E3FDE01B06B0BDE8F0872B7A08F1010859
:100B4800EA79A97968791EF0D2FD8244FDE68846E3
:100B580095E78946A3E7002ED2D1304618F0AEFDBE
:100B6800CEE700BF100A0021440000214C000021FC
:100B7800480000218FB572B61A4B9D6AE5B9BFF3DC
:100B88004F8F1949194BCA6802F4E0621343CB60CE
:100B9800BFF34F8F00BFFDE7B4FBF6F4D3B20132C9
:100BA800002CF9D103F110026A4402F80C4C0A2413
:100BB80033B901A8A847E2E7044600220A26EDE770
:100BC800013BDBB203F110020DEB0206C2B2B2FB2D
:100BD800F4F704FB17223032B0FBF4F006F80C2CC3
:100BE800E6E700BF100A002100ED00E00400FA0566
:100BF8001FB5164C02A8237A8DF80930E3798DF8D1
:100C08000830A379ADF80C306379ADF80A3016F0E6
:100C180057FC18B1B3210320FFF7ACFF012301A84B
:100C28008DF8043020F04EFB08B1B721F3E7A07C23
:100C380016F06EFC08B1BA21EDE7607C16F062FC94
:100C480008B1BB21E7E704B010BD00BF100A0021BE
:100C580038B5054600283DD01CF0CEFC10B94FF041
:100C6800FF3038BD1BF080FCB0F5FA7FF7D81C4C7C
:100C78001C48A562002500F0C5FA1E222946204618
:100C880084F82C5084F82D50E57784F8205065625C
:100C9800A5771CF045FE1B2240F20113627140F259
:100CA8001B3223800123E28040F20232A3702281AA
:100CB8001F22237562814FF40272A28144F6011249
:100CC8002282EFF3108472B601F08EFC2CB962B662
:100CD8002046C6E76FF01500C3E72846C1E700BF06
:100CE800100A0021F90B000110B5002840F0A2807D
:100CF800534C94F82C30002B40F09980A1B1002A75
:100D08006BD00139152900F29580DFE801F00B1945
:100D18001C2C545B73325E616E383E4B50787B8A74
:100D28008D8083861378237001210020FFF7CEFD84
:100D3800B0F5803F80F28180012384F82D3010BD0A
:100D480013786370F0E79378002B46D0D378002BA4
:100D580043D013781A2B40D953781A2B3DD91368EE
:100D6800C4F80530E0E71378E278934235D3A370EE
:100D7800DAE71378A27893422FD8E370D4E7137890
:100D8800A278934229D8E373CEE713782BB353782C
:100D9800013BDBB2F82B20D8138892782382294BA9
:100DA8009A70C1E71078E07416F056FEBCE7137825
:100DB8009BB12375B8E71378E27F0AB1012B0CD9F0
:100DC8006372B1E713886381AEE713782371ABE7E9
:100DD800A17F137821B9012B04D86FF01500AEE775
:100DE800002BFAD0137863739EE71378082BF4D896
:100DF800A37399E71388FF2BEFD8237394E713782D
:100E0800637591E713780E2BE7D8A3758CE71378F1
:100E1800637689E71378A37686E71388A4F81B30EE
:100E280082E71378E3757FE7137823767CE74FF042
:100E3800FF3084E76FF02C0081E76FF00B007EE74E
:100E4800100A0021200A002170B50D460646F0B1AF
:100E5800E9B111F007041AD100F006F9D0B1304613
:100E68000E4E1CF00DFC214686F82E002846FFF792
:100E78002DFD16F01DFE96F82E00716A16F01AFC6C
:100E8800FFF7B6FE0123204686F82C3070BD6FF0C0
:100E98001500FBE74FF0FF30F8E700BF100A00210C
:100EA80010B5084C94F82C302BB116F01FFC94F8B0
:100EB8002E001CF001FC01F0A7FB002084F82C0098
:100EC80010BD00BF100A002150B1074B03F11402F6
:100ED80053F8041B934240F8041BF9D100207047D3
:100EE8006FF01500704700BF67530301074B93F875
:100EF8002D2010B532B993F82C401CB916F06CFBB4
:100F0800204610BD4FF0FF30FBE700BF100A00215C
:100F1800074B93F82D2010B532B993F82C401CB923
:100F280016F06EFB204610BD4FF0FF30FBE700BF08
:100F3800100A002110B50B4C94F82D3073B994F8B1
:100F48002C305BB994F820302BB116F097FB0123B5
:100F58000020E37710BD16F075FBF8E74FF0FF307F
:100F6800F8E700BF100A0021074B93F82D2010B5B1
:100F780032B993F82C401CB916F0DEFA204610BDA1
:100F88004FF0FF30FBE700BF100A0021074B93F832
:100F98002D2010B532B993F82C401CB916F0BEFAC2
:100FA800204610BD4FF0FF30FBE700BF100A0021BC
:100FB800074B93F82D2010B532B993F82C401CB983
:100FC80020F0C9F9204610BD4FF0FF30FBE700BF05
:100FD800100A0021074B93F82D2010B532B993F869
:100FE8002C401CB920F0BAF9204610BD4FF0FF3054
:100FF800FBE700BF100A0021074B93F82D2010B51E
:1010080032B993F82C401CB920F0ABF9204610BD3A
:101018004FF0FF30FBE700BF100A0021074B93F8A1
:101028002D2010B532B993F82C401CB920F09BF94B
:10103800204610BD4FF0FF30FBE700BF100A00212B
:1010480007C8024B83E8070000207047400A0021C8
:10105800014B5B68184700BF400A0021014B9B68A1
:10106800184700BF400A0021034B586818B1986818
:10107800003818BF01207047400A002173B5031DCE
:101088002D4D04462B60284605F016FD022806461D
:1010980006D1294920461CF018FF304602B070BD21
:1010A800042842D12B78092B0AD0252B1ED029469B
:1010B80020461CF084FFB0F5817F2DD3722112E009
:1010C80005213E201CF0D4FE0028F0D1EB7801A9C0
:1010D8002A79684643EA0223ADF800301DF0E3FAA6
:1010E8000028D0D053210820FFF744FD1A213E20C4
:1010F8001CF0BEFE0028DAD16B68694601A8C3F36C
:101108000F23ADF8043011238DF806301DF0EDFAE9
:101118000028B8D06521E6E70028B4D0A178207867
:101128001CF0A6FE0028B8D1ADE70828B5D10249C1
:1011380020461CF002FFB0E74C0A0021074B4FF095
:10114800FF3141F6FF72C3E9001205490022C1E9E7
:1011580000221F21C3E90212704700BF00000021CE
:10116800500B00213F280CD801380B4BC0F342121A
:1011780000F01F0053F8223023FA00F000F00100BD
:101188007047FF2806D04038044BC0F3421200F0E5
:101198001F00EFE70120704700000021500B0021DD
:1011A800074B0146006849681A4603C240F48C227E
:1011B8001A6041F0107242F4FF625A60704700BF33
:1011C800000000210246024B0068516803C37047C3
:1011D800500B00210246024B0068516803C3704758
:1011E800080000210138064BC0F3421200F01F002E
:1011F80003EB82039B6823FA00F000F001007047BC
:1012080000000021014B1860704700BF580B0021F7
:1012180010B5FFF793FF1FF077FA034B04461B68DE
:1012280003B19847204610BD580B002138B5274B0D
:101238000446D3F8A022D3F8A412013106D1D3F87A
:10124800A8324FF6FF719BB28B423DD0D3073BD5F6
:101258001E4DD5F8A422D5F8A832C4F80120A4F868
:101268000530C3F3072363F03F03A371D5F8903229
:10127800013323D0D5F8943201331FD0D5F89832F2
:1012880001331BD0D5F89C32013317D0002001F070
:101298002BFB98B9D5F89002D5F89412D5F8982276
:1012A800D5F89C32C4F80700C4F80B10C4F80F2016
:1012B800C4F8133001230020237038BD1022002108
:1012C800E01D1CF02DFBF5E70023F4E70000FF010B
:1012D80070B5274D102200210446D5F8A0621CF0F5
:1012E8001FFB10220021A0181CF01AFBD5F8803231
:1012F80001330BD1D5F88432013307D1D5F88832C0
:10130800013303D1D5F88C3201330BD0D5F88002E4
:10131800D5F88412D5F88822D5F88C32206161611D
:10132800A261E361002001F0DFFA08B9F3071CD4D9
:101338000F4BD3F8902201320BD1D3F8942201320B
:1013480007D1D3F89822013203D1D3F89C22013275
:101358000BD0D3F89002D3F89412D3F89822D3F88C
:101368009C3220606160A260E360002070BD00BF15
:101378000000FF0180B588B000AF786039603B6835
:101388001B88BB83BB8BC3F30E037B837B68DB7C2F
:1013980018461DF0B4F903463B837B681A883B8BDB
:1013A8001344FB827B6818333B617B8B3A69134497
:1013B800FB603B8BFA68128892B21A44FB8A13448A
:1013C8005A1EFB8A92FBF3F39BB2FA8A02FB03F3E1
:1013D8007B817A8B7B891344FB837B685B88FA8BE0
:1013E8009A420AD2B7F91C200A4B13401AB2B7F92D
:1013F8001E3013431BB2FB8305E0BB8BDB439AB261
:10140800044B1340FB833B68FA8B1A8000BF2037DC
:10141800BD4680BD0080FFFF80B584B000AF0A23C1
:10142800FB6043E0254AFB6852F823303B603B6889
:10143800002B37D03B681B79FF2B03D13B68002278
:101448001A7130E00023BB60FB68013B7B601AE047
:101458001A4A7B6852F82330002B11D0174A7B6850
:1014680052F823301A793B681B799A4208D1134AFB
:101478007B6852F823309B781A46BB681344BB60DC
:101488007B68013B7B607B68002BE1DABB68FF2B44
:1014980003D9FA211720FFF76DFBBB68DAB23B6866
:1014A8001A7100E000BFFB68013BFB60FB68002B82
:1014B800B8DA00BF00BF1037BD4680BD5C0B002105
:1014C80080B584B000AF78607B68002B31D0204BAA
:1014D8001B78022B04D04FF483711720FFF74AFBC7
:1014E8001B4B03221A707B681B6803F00703002B51
:1014F80004D040F20B111720FFF73CFB154B1B687B
:10150800FB607B681B68144A1360134B1B68114A05
:101518001360114B1A68FB6813440F4A13600E4B93
:101528001A687B681A602C2200210C481CF0F8F914
:1015380009E0074B01221A70074B00221A60064B7C
:101548001B68044A136000BF1037BD4680BD00BF4A
:10155800880B00218C0B0021900B00215C0B0021D3
:1015680090B587B000AF03463960FB71544B1B78C8
:10157800012B08D0524B1B78032B04D04FF49071E9
:101588001720FFF7F7FA3B689B79082B04D94FF42B
:1015980091711720FFF7EEFA3B68DB79002B00F01A
:1015A8008A80484B1C683B68DB7918461DF0E4FECE
:1015B800034623443B613B689B79022B38BF0223D7
:1015C800DBB21A463B6913445A1E3B689B79022BCF
:1015D80038BF0223DBB25B4213403B613B689B8808
:1015E8001A463B689B7913445A1E3B689B795B42B9
:1015F8001340FB60FB684FF6FE72934204D940F239
:101608002D111720FFF7B6FA2D4B1B78032B47D166
:101618003B68DB7918461DF0AFFE03465B423A692A
:101628001344BB60FB79284A52F82330002B04D0BE
:101638004FF499711720FFF79DFAFB792249BA6890
:1016480041F82320FB689AB2BB681A803B68DA79B4
:10165800BB689A70BB680122DA703B681A7ABB686B
:101668001A713B681B681B0C9AB2BB68DA803B682E
:101678001B689AB2BB681A8100237B610AE0BA68CA
:101688007B6904335B0013444FF6F0725A807B6920
:1016980001337B613B68DB791A467B699342EED361
:1016A8003B68DB791A46FB6802FB03F33A6913448B
:1016B800044A136000E000BF1C37BD4690BD00BF60
:1016C800880B00218C0B00215C0B002180B500AF3A
:1016D800144B1B78012B08D0124B1B78032B04D01A
:1016E8004FF4A3711720FFF745FA0E4B1B78032B15
:1016F80011D10D4B1A680D4B1B689A4204D040F269
:1017080049111720FFF736FAFFF786FE054B04222A
:101718001A70002304E0034B02221A70034B1B6863
:10172800184680BD880B0021900B00218C0B0021EE
:1017380080B5A8B000AF786039603B689B781A46DE
:101748003B685B781344FF2B04D940F25B111720E8
:10175800FFF710FA3B681A783B685B789A4204D91D
:1017680040F25F111720FFF705FA7B68C7F8983039
:101778007B68002B0CBF0123002387F89F3097F864
:101788009F3083F00103DBB2002B07D0964B1B7808
:10179800022B03D039680020FFF7CAFF97F89F3063
:1017A800002B01D0002301E007F198031846FFF74A
:1017B80087FE3B685A788D4BC7F88C304FF45873C6
:1017C800A7F89030082387F89230134687F89330AB
:1017D800002387F8943007F18C0319460020FFF79F
:1017E800BFFE3B689A78824BC7F88C304FF47C7305
:1017F800A7F89030082387F89230134687F893307B
:10180800002387F8943007F18C0319460120FFF76D
:10181800A7FE3B68DA78774BC7F88C304FF4A8738B
:10182800A7F89030082387F89230134687F893304A
:10183800FF2387F8943007F18C0319460220FFF73D
:101848008FFE3B681A796C4BC7F88C309023A7F849
:101858009030082387F89230134687F89330FF2397
:1018680087F8943007F18C0319460320FFF778FEB8
:101878003B685A79614BC7F88C30A823A7F8903099
:10188800082387F89230134687F89330012387F8A6
:10189800943007F18C0319460420FFF761FE3B687A
:1018A800997907F18C0300221A605A609A60544BA8
:1018B800C7F88C30082387F892300B4687F89330A6
:1018C800FF2387F894303B689B79002B04D016F0EF
:1018D800B7F80346A7F8903007F18C03194605209E
:1018E800FFF73EFE3B68DA79464BC7F88C30802319
:1018F800A7F89030082387F89230134687F893307A
:10190800FF2387F8943007F18C0319460620FFF768
:1019180027FE3B681A7A3C4BC7F88C307823A7F827
:101928009030082387F89230134687F893300223C3
:1019380087F8943007F18C0319460720FFF710FE4B
:101948003B685A7A314BC7F88C304FF4F873A7F8D4
:101958009030082387F89230134687F89330002395
:1019680087F8943007F18C0319460820FFF7F8FD33
:101978003B689A7A264BC7F88C304FF49073A7F8D7
:101988009030082387F89230134687F89330FF2366
:1019980087F8943007F18C0319460920FFF7E0FD1A
:1019A8003B68DA7A1B4BC7F88C304FF48073A7F882
:1019B8009030082387F89230134687F89330002335
:1019C80087F8943007F18C0319460A20FFF7C8FD01
:1019D800FFF77CFE104B1B681A467B68D31A184623
:1019E800A037BD4680BD00BF880B002121570101EB
:1019F800C9DB000195A00001711902016D7A01018E
:101A0800651A0201691A0201455F0101B15E01010F
:101A1800995F0101196001018C0B002180B586B026
:101A280000AF78600B46FB707B684FF6FF721A8038
:101A3800FB78224A52F823307B617B69002B01D165
:101A4800002336E07B699B783B617B691B793A69A7
:101A5800B3FBF2F2396901FB02F29B1AFB73FB7BC1
:101A68001A464FF6F07178691DF02DFC0346BB73DA
:101A7800BB7BFF2B01D100231BE07B691B799AB24A
:101A8800FB7B3969C91ABB7B0B443969B3FBF1F19C
:101A9800386900FB01F15B1A9BB213449AB27B6868
:101AA8001A807B681B88BA7B194678691DF089FC07
:101AB800034618461837BD4680BD00BF5C0B0021A1
:101AC80080B584B000AF03460A46FB8013467B719D
:101AD8007B79264A52F82330FB60FB68002B01D142
:101AE80000233EE0FB88B3F5706F04D340F27E21FB
:101AF8001720FFF73FF8FB881946F8681DF00CFC23
:101B08000346FB72FB7AFF2B06D0FB7A1946F8686E
:101B18001DF03FFC034624E0FB88FA68927893FBAB
:101B2800F2F101FB02F29B1ABB72BB7A1A464FF61E
:101B3800F071F8681DF0C7FB0346FB72FB7AFF2BB8
:101B480001D100230DE0FA7ABB7A9A4202D0FB68F1
:101B58000022DA70FA7AFB881946F8681DF031FC21
:101B6800034618461037BD4680BD00BF5C0B0021F8
:101B780080B584B000AF03460A46FB8013467B71EC
:101B88007B790D4A52F82330FB60FB881946F868C8
:101B98001DF0C2FB0346FB72FB7AFF2B01D1002329
:101BA80005E0FB7A1946F8681DF0F3FB0346184672
:101BB8001037BD4680BD00BF5C0B002180B586B0E4
:101BC80000AF03460A46FB8013467B717B79174AB0
:101BD80052F823307B61FB88194678691DF09CFB1D
:101BE8000346FB74FB7CFF2B01D1032319E07B69BF
:101BF800DB881B047A6912891343FB60FB7C194656
:101C080078691DF0C6FB0146FA88FB6810469847BC
:101C1800FB7C7A6904335B0013444FF6F0725A80F8
:101C2800002318461837BD4680BD00BF5C0B002155
:101C380080B584B000AF78607B689B791A461C4BEE
:101C480053F82230FB60FB68002B26D102232BE0DF
:101C58007B68DB79FB727B68DB790133DAB27B68FE
:101C6800DA71FB7AFA6804335B0013445B884FF639
:101C7800F072934211D0FB7AFA6804335B00134484
:101C88005A887B689A80FB7A1946F8681DF081FBB0
:101C980002467B681A60002306E07B68DA79FB68F5
:101CA8009B789A42D4D3022318461037BD4680BD8C
:101CB8005C0B002180B483B000AF0023FB710023CC
:101CC800FB710DE00C4B1B685A68FB799B001344B1
:101CD8001B68002B01D0002309E0FB790133FB715D
:101CE800054B1B681B7AFA799A42EBD301231846F5
:101CF8000C37BD4680BC7047940B002180B586B078
:101D080000AFF8600B467A60FB7200237B61FB68CA
:101D1800002B0CBF01230023FB74FB6803F00303B3
:101D2800002B03D086211820FEF724FFFB7A002B16
:101D380036D0796800201DF0E3F978617B690C33AF
:101D48007B61FB7A9B007A6913447B61FB7C83F09F
:101D58000103DBB2002B23D0144AFB681360134B3A
:101D68001B68FA7A1A72114B1B68FA680C325A60AF
:101D78000E4B1B685968FB7A9A000C4B1B680A4487
:101D88001A600A4B1B685868FB7A9B001A460021A8
:101D98001BF0C6FD054B1B68796818461DF0B0F9A5
:101DA8007B6918461837BD4680BD00BF940B0021DB
:101DB80090B589B002AF0446084611461A46234634
:101DC800FB800346BB800B467B8013463B80334B2E
:101DD8001B68002B03D1A5211820FEF7CBFE2F4B43
:101DE8001B681B7A9BB2FA889A4208D22B4B1B6855
:101DF8005A68FB889B0013441B68002B01D00323FF
:101E080048E03A88BB88114618461DF02EFC034668
:101E1800FB823A8D7B88114618461DF03EFC03462E
:101E2800BB82FB8ABA8A114618461DF04EFC03464F
:101E38007B821A4B1B681B687A8A114618461DF06C
:101E4800B4F9F860FB68002B01D1012322E0BA8ABB
:101E58007B8A1946F8681DF0DCFBF8681DF0ECFB7E
:101E68007A88B98A3B8D009309231DF0ECFAF8684B
:101E78001DF0EDFBBA88F98A3B8800930A231DF010
:101E88006CFB064B1B685A68FB889B001344FA6876
:101E98001A60002318461C37BD4690BD940B0021DC
:101EA80080B584B000AF0346FB80214B1B68002B34
:101EB80003D1C6211820FEF75DFE1D4B1B681B7A57
:101EC8009BB2FA889A4208D2194B1B685A68FB8859
:101ED8009B0013441B68002B01D1032324E0144BFF
:101EE8001B685A68FB889B0013441B68FB60104BF7
:101EF8001B685A68FB889B00134400221A600C4B2D
:101F08001B681868FB685B881A46F9681DF0AFF90A
:101F1800FFF7D0FE0346002B05D0054B1B681B6856
:101F280018461DF022F9002318461037BD4680BD1B
:101F3800940B002180B582B000AF0C4B1B68002BBE
:101F480010D00023FB7107E0FB799BB21846FFF71E
:101F5800A7FFFB790133FB71044B1B681B7AFA79E5
:101F68009A42F1D300BF0837BD4680BD940B0021CB
:101F780080B584B000AF0346FB800023FB60144BA0
:101F88001B68002B03D1EC211820FEF7F3FD104B42
:101F98001B681B7A9BB2FA889A4213D20C4B1B68B7
:101FA8005A68FB889B0013441B68002B0AD0084B17
:101FB8001B685A68FB889B0013441B6818461DF071
:101FC8003BFBF860FB6818461037BD4680BD00BF74
:101FD800940B002180B584B000AF0346FB8000233A
:101FE800FB60144B1B68002B03D1FA211820FEF765
:101FF800C1FD104B1B681B7A9BB2FA889A4213D218
:102008000C4B1B685A68FB889B0013441B68002B09
:102018000AD0084B1B685A68FB889B0013441B684E
:1020280018461DF014FBF860FB6818461037BD46CB
:1020380080BD00BF940B002180B586B000AF7860EA
:10204800084611461A460346FB700B46BB701346FA
:102058003B807B68002B0CBF012300233B740023CB
:102068007B61FA78BB781344DAB23F4B1A707B680D
:1020780003F00303002B03D04E210920FEF77AFD5D
:102088003B881F2B03D83B889B007B821CE03B8846
:10209800FF2B0FD93B8803F1FF023B885B009A4274
:1020A80003DA3B88FF339BB202E03B885B009BB2BC
:1020B8007B8209E03B885B007C2B03DD3B885B006F
:1020C8009BB200E07C237B827B8A03339BB223F0A4
:1020D8000303FB813B7C83F00103DBB2002B05D0BB
:1020E800224A7B681360224AFB8913801E4B1B78A7
:1020F8001A4613469B001344DB001A467B691344B7
:102108007B6100237B7422E03B7C83F00103DBB21C
:10211800002B15D0154B19687A7C13469B00134485
:10212800DB000B4401221A70104B19687A7C1346A5
:102138009B001344DB000B4479687A690A445A60AF
:10214800FB897A6913447B617B7C01337B74064B82
:102158001B787A7C9A42D7D37B69073323F007032D
:1021680018461837BD4680BD980B00219C0B0021EE
:10217800A00B002180B588B000AF78600B46FB70DB
:102188007B685B687B61FB78002B30D07B68012221
:102198005A70404B1B8818461DF0FFFB0346FB8115
:1021A8000023FB611FE07B68FA690C32002123F8E9
:1021B80012107B68FA691032F98923F81210FB892A
:1021C800FA6902FB03F37A691A447968FB699B0090
:1021D8000B445A607A68FB691344143300221A705E
:1021E800FB690133FB61FB69032BDCD94DE07B689C
:1021F80000225A700023BB611AE07B68BA690C326E
:10220800002123F812107B68BA691032002123F8E4
:1022180012107A68BB699B00134400225A607A68DE
:10222800BB691344143300221A70BB690133BB61C4
:10223800BB69032BE1D9174B1B8818461DF0BAFB65
:1022480003467B82134B1B8818461DF0C6FB0346CA
:102258003B827B687A695A607B683A8A1A843B8A2F
:102268007A691A447B689A607B687A8A5A847B68A0
:102278007A69DA607B683A8A9A843B8A7A691A446E
:102288007B681A617B687A8ADA8400BF2037BD468A
:1022980080BD00BFA00B002180B584B000AF002333
:1022A800FB600023FB7217E01D4B1968FA7A13468E
:1022B8009B001344DB000B441B78002B09D0184B00
:1022C8001968FA7A13469B001344DB000B44FB6041
:1022D80007E0FB7A0133FB72124B1B78FA7A9A42B9
:1022E800E2D3FB68002B03D1A9210920FEF742FCA9
:1022F800FB68002B0ED0FB6802337B6000BF7B6855
:1023080000221A7000BF0121F868FFF733FFFB684D
:1023180000221A70FB6818461037BD4680BD00BF02
:102328009C0B0021980B002180B582B000AF0C4BAC
:102338001B8818461DF031FB0346FB80084B1B88A1
:1023480018461DF04AFB0346BB80FA88BB889342B7
:1023580038BF13469BB218460837BD4680BD00BF3C
:10236800A00B002180B586B002AF78600B46FB70E9
:102378001346BB702E23FB73BB789BB2FA7892B2DC
:10238800F97B18461DF0C1F80346BB817B68002B1A
:1023980013D0BB789AB2FB789BB2F87BB9890093CB
:1023A800034678681DF069F8064A7B681360064A98
:1023B800FB781370054ABB781370BB891846103731
:1023C800BD4680BDA40B0021A80B0021A90B00214C
:1023D80080B500AF054B1B68054A1178054A12788D
:1023E8001846FFF7BFFF00BF80BD00BFA40B002148
:1023F800A80B0021A90B002180B400AF024B1B6879
:102408001846BD4680BC7047A40B002180B400AFBD
:10241800024B1B781846BD4680BC7047A90B0021AB
:1024280080B586B002AF78600B46FB701346BB7070
:10243800BB789BB21A460521F7201DF0D6F8034653
:1024480003339BB223F00303BB817B68002B2BD0A3
:102458007B6803F00303002B03D095211920FEF7B6
:1024680089FB154A7B681360134ABB899380002354
:10247800FB8114E0104B1B68FA890F49898801FB1E
:1024880002F21344BB60BB789BB2B9890093052361
:10249800F722B8681DF07BF8FB890133FB81FB78D4
:1024A8009BB2FA899A42E5D3FB78BA8902FB03F317
:1024B80018461037BD4680BDC40B002180B584B0D6
:1024C80000AF3A601A460346FB710B46BB711346D0
:1024D8007B713B6803F00703002B04D03B6803F0D3
:1024E8000303002B03D01F214C20FEF743FBFB798D
:1024F8009BB24FF48772194600201DF0C8F9F860A6
:102508007B79002B01D0002300E03B46BA79F968BB
:1025180001FB02F2114618461CF0F2FDB8607B7907
:1025280083F00103DBB2002B05D03B68044A13603B
:10253800044AFB681360BB6818461037BD4680BD67
:10254800CC0B0021D00B002180B582B000AF7860A1
:10255800054B1B68054A1268796818461CF087FE07
:1025680000BF0837BD4680BDCC0B0021D00B002131
:102578000122104B4FF0FF3000215A60C3F80803C6
:1025880003F580539A60C3F80012C3F80803C3F830
:102598000015C3F804259A60C3F80803C3F80015AA
:1025A800C3F8042503F5805341F6F872C3F80825EB
:1025B800704700BF00D000410A4B4FF40052C3F8E7
:1025C8008020BFF34F8FBFF36F8FC3F880214FF484
:1025D8008042C3F88020BFF34F8FBFF36F8FC3F8DB
:1025E8008021704700E100E008B5FFF7C1FFFFF761
:1025F800E3FF00F017F8034B41F6F872C3F808251B
:1026080008BD00BF00F0004108B5FFF7B1FFFFF7B4
:10261800D3FF034B41F6F872C3F8082508BD00BF85
:1026280000F0004110B5054C20461FF02EFD18B1F2
:1026380030211D20FEF79EFA607010BDD40B0021DA
:102648002DE9F04707462B4E2B4C2A481FF021FD59
:10265800054608B1FF2373704FF001080023DFF827
:102668009C90C4F80480C4F80031C4F80431C4F85C
:102678000475C4F80080D4F8003113B9D4F80431D3
:10268800DBB1D4F80431002BE8D1A5B996F8018064
:10269800032375704FF400523046C4F80833184BC2
:1026A800C4F80451C4F80051C3F880211FF000FD9C
:1026B800B8F1000FC9D1BDE8F087D9F81030DB06B2
:1026C800D9D50F4B4FF40052C3F88021EFF3108A8D
:1026D80072B60323C4F80433D4F8003123B9D4F80C
:1026E80004310BB91FF0EFFCBAF1000FC3D162B689
:1026F800C1E700BFD40B002100D0004100ED00E08D
:1027080000E100E0044B4FF6FF7200219A86DA865A
:1027180083F832101A877047D80B0021044B4FF604
:10272800FF7200219A86DA8683F832101A8770477A
:10273800D80B0021054B9A8E824205D100214FF615
:10274800FF7283F832109A86704700BFD80B0021B9
:10275800014BD886704700BFD80B00210A4A4FF6B4
:10276800FF710346B2F834C08C4503D000221046EE
:102778001A60704792F83210012902D001201A60BD
:1027880070470020704700BFD80B0021064B93F814
:102798003220012A06D00122D98E104683F8322031
:1027A8009986704700207047D80B0021014B188785
:1027B800704700BFD80B0021074B0246B3F834C05E
:1027C800198F8C4501D00020704793F832000028FB
:1027D800FAD0012013607047D80B0021094B998E5D
:1027E8001A8F914201D0002070474FF6FF7193F87D
:1027F80032209986002AF6D00022012083F8322060
:10280800704700BFD80B0021064B998E1A8F914252
:1028180001D00120704793F83200B0FA80F04009E7
:10282800704700BFD80B0021704700BF034648B966
:10283800094B4FF0010C08688A88586003F804CBEC
:102848009A807047012800D07047034A0868898831
:102858009372D06011827047140C002140B90C4A61
:1028680013781BB15068128908608A80184670472F
:10287800012809D1064A937A002BF7D0D068128A2A
:10288800086018468A80704700231846704700BFC2
:10289800140C002100B580EA020C1A78087891F827
:1028A80005E050404A78604493F801C082EA0C027F
:1028B80091F802C0024498788CEA000CC8789444D5
:1028C800DA7850400A7900EB0C0193F804C0587983
:1028D80082EA0C038EEA00020B44DA420CBF0120A4
:1028E80000205DF804FB00BF10B9054B187870474D
:1028F800012802D1024B987A70470020704700BF28
:10290800140C002130B503468DB0CA780D4600245A
:1029180000685968EC468DF81F209A68DB680694B1
:102928008DF81C40CDE90444ACE80F002B796846CB
:102938008DF81E306B798DF81D30FFF781FE2A78EF
:102948009DF82F309A4202D020460DB030BD6A78EB
:102958009DF82E309A42F7D1AC789DF82D00201AB8
:10296800B0FA80F040090DB030BD00BF30B50C465C
:10297800032105468DB0601852B3FEF769FB6379F1
:10298800EC4603F03F0343F0400363718DF81D30BC
:102998000023286806938DF81C306968AA68CDE979
:1029A8000433E3788DF81F3023798DF81E30EB68F7
:1029B800ACE80F006846FFF743FE9DF82F109DF81E
:1029C8002E209DF82D3021706270A3700DB030BD9F
:1029D800FEF744FBD3E700BF8C463222064B00B516
:1029E8000CF8032B8E4607CBCEF80300CCF8041066
:1029F800CCF808205DF804FB340C002170B5224D9A
:102A0800E96AAC6A0B78A83403F00303032B1AD1E4
:102A18006B8E01202A8E0343207442F400626B8679
:102A28006B6B2A869847E96A237E013B18BF01230E
:102A380023764B7833B1D4E92032013342F10002D6
:102A4800C4E9203270BD002BEED04B78002BEBD0C0
:102A58002A8E42F400622A86AA6B002AF2D0FB2B47
:102A680008D895F83C3063B16B6B00212020BDE895
:102A78007040184795F83D3043F0100385F83D3015
:102A880070BD01230370CFE7280C002110B5114C4D
:102A980015F084FC15F0A8F90021636B208E984787
:102AA800237E4BB9236C94F83D1094F83E00984768
:102AB800002384F8443010BD94E8070004F10C03A7
:102AC80083E807000222044904F1190004F094F98C
:102AD800E8E700BF280C0021E1290001034B93F827
:102AE800443003B97047FFF7D1BF00BF280C00215D
:102AF80070B5804C002382B0A56A8DF8053095F832
:102B0800CB2005F1A80694F87A300AB10433DBB279
:102B1800FF2B11D180B995F86F3095F86E108B4264
:102B280002D0FF2015F038FBB37D032B00F2DC80C8
:102B3800DFE803F00520817195F86E10F1E794F84D
:102B48007B306D48ADF80630A5F85430FFF734FEF9
:102B5800002840F0A0800DF105020DF10601D4F81F
:102B680080001BF04DFFE06720B196F85D30002B28
:102B780000F0A480614B1846E367F37DDB0003F0A7
:102B88000802037803F0F3031343327E920002F045
:102B98000402134303F0EF0203F00303032B027054
:102BA80002D1C378022B12D0D4F880001CF053F85D
:102BB80048B9E06F027802F00303032B07D0FFF750
:102BC80023FE002877D1E06F027842F010020270ED
:102BD80096F8223013B14378002B47D115F010FD39
:102BE80015F002F96A6941F64B539A4237D8012128
:102BF80095F86F20084615F0C9FDE26F012340499A
:102C08001088927884F8B030A4F8B40084F844307E
:102C18008A7002B070BD3848FFF7CEFD00285ED03C
:102C2800E06FC3781B2BA8D1012105F1100015F026
:102C3800E9FAE06FA1E7B5F854300DF105020DF19E
:102C48000601D4F88000ADF806301BF0D9FEE06725
:102C5800002892D140F2E9212720FDF78BFF95F853
:102C68006F200121002015F091FDC6E7D4F88400FB
:102C780015F0C6FC94F82410D4F88400D6E91E2375
:102C8800B1FA81F6E16F7609C4E9262384F8A060D9
:102C980015F050F8A6E7638E8020E16F43F08003BB
:102CA800626B638690470121E06F7174C3781B2BB8
:102CB8007FF463AFB9E7E06F027888E79DF80530E5
:102CC8002BB1BDF8061003F02FFDE06F55E7038028
:102CD80001218370E06F03F099FBE06FF1E740F2A8
:102CE800F2212720FDF746FF40F2FF212720FDF7BC
:102CF80041FF00BF280C0021A40C0021700C00210A
:102D0800DC0C0021174A92F824307BB180B992F884
:102D1800B410C9060ED503B30021538E9B0714D5F2
:102D2800D36FDB78981E18BF012070470128EED0BA
:102D380000207047D2F8B810906B0978C1F30011E1
:102D4800C1F1010120B1002BE7D131B10120704759
:102D5800B2F8BC000028F9D1F5E7508E003818BF4A
:102D680001207047280C002108B5094B93F844202E
:102D7800022A07D1DA7A42F00102DA72BDE8084085
:102D8800FFF784BE40F24E212720FDF7F3FE00BF77
:102D9800280C0021F8B52C4C0646A56AD4F8B830A2
:102DA80095F8CB2005F1A80794F87A00E3620AB1F8
:102DB800031DD8B2FF2895F86F1004D11EB995F8F5
:102DC8006E30994203D015F0E7F997F823205AB3EB
:102DD800D4F8840015F014FC94F82430D4F8841046
:102DE800003BE06A18BF012384F8A030D7E920230C
:102DF800C4E9262314F09EFF3EB995F86F0010F041
:102E08000C0018BF282015F059FC6A6941F64B538D
:102E18009A420FD895F86E200021012015F0B6FCD3
:102E2800022384F84430F8BDE06A15F0E9FB14F099
:102E3800DBFFE1E7002195F86E20084615F0A6FCB7
:102E4800022384F84430F8BD280C00212DE9F04114
:102E5800444C82B006460F4694F84420A56A012ADD
:102E68005FFA82F805F1A80577D12B7C6BB1638EE8
:102E78000021042043F0040329746386636B984798
:102E880094F824300BB185F81280E16F0A7802F0CB
:102E98000302032A44D04B78EBB10223AB7595F8B3
:102EA800233023B3A36A93F86F1094F824300139C0
:102EB800003B18BF012384F8A030D5E92023C4E9DA
:102EC800262394F87A20072942D8DFE801F03E0942
:102ED80041074141413B0123AB75E0E74FF003084F
:102EE80000214346012000911F4914F0BFFE012F25
:102EF80011D186B9D4F8C0303046984758B194F803
:102F08003D3043B93046FFF7FDFE20B902B0BDE8B9
:102F1800F041FFF73FBF02B0BDE8F041FFF7B6BD93
:102F2800AB7D63B9638E022043F002036386636B53
:102F38009847E16F0B7803F00303032BABD103230E
:102F4800AB75ACE74FF00208CAE74FF00008C7E7D7
:102F580040F2C5310620FDF70DFE40F26E412720F4
:102F6800FDF708FE280C0021B00C00210D4B0E4A7D
:102F780070B50E4C1A6094F8443073B906460D4685
:102F880003F0FF02012104F14800227603F03EFA23
:102F9800C4F8B860C4F8845070BDDE212720FDF75E
:102FA800E9FD00BF500000217C380001280C0021F9
:102FB800044A92F8443003F0FF000BB910767047CA
:102FC8000C207047280C0021024B012283F83C207A
:102FD800704700BF280C00212DE9F04385B0BF4C95
:102FE80002AD85E8030094F844100C98002940F0DD
:102FF800EF81002B18BF002A00F0EA81002800F0BA
:10300800E78101F0FF06C4F8C030206404F124030E
:10301800626384F83C6084F83D6084F8C46084F896
:103028003E6084F8B0606686268695E8030083E8EB
:103038000300A56A15F01AF914F0D6FE95F9720086
:1030480005F1A80715F094F9286A15F0BDFAA869E2
:1030580015F094F997F8330015F09AF994F824309C
:10306800002B00F0B38004201AF03AFD6A6941F69B
:103078004B539A4200F2C780012015F081FB4D2086
:1030880015F044F895F86F10012016F07DF8002827
:1030980000F0B280924B186815F09CFA2888FEF769
:1030A80099FFC4F880002888FEF762FF95F87B3006
:1030B800C4F8C8001BB9696F002940F0D380D7F85D
:1030C8009430DFF820C2D7F88800D7F88C10D7F8EA
:1030D8009020ACE80F00D7F89830C4F8A130D7F8A2
:1030E8009C30CCF80D3094F82430002B40F08F80C1
:1030F800A36A93F8C520263A012A40F2DA8093F8A9
:10310800C620262A00F0D58093F86E10042900F016
:10311800168111F00C0FA88F18BF4FF4296002F028
:1031280037F92B8F95F86F10834228BF034605F1B6
:10313800300084F87B3003F0FBFE95F86F1097F8A9
:1031480023900829B5F8408008BF042102F020F92F
:10315800B9F1000F01D1043080B2404528BF404684
:103168005FFA80F884F8CC8004F048F920B1B8F10F
:103178002B0F38BF4FF02B0894F8241084F87A806E
:10318800002940F0D18097F82230002B00F0B4805D
:10319800012395F86E6084F8A030013E6869D7E98C
:1031A8001E23C4E9262341F64B53984294BF0420BA
:1031B8000020072E00F2E380DFE816F09700F80001
:1031C800E1009600E100E100E100FA0003201AF0B6
:1031D80087FC6A6941F64B539A4210D8012015F0D2
:1031E800CFFA4D2014F092FF95F86E10002015F0DC
:1031F800CBFF00287FF44EAF05B0BDE8F0839620E2
:1032080014F084FFF0E7962014F080FF3AE7A26AF2
:1032180092F8C530A3F12601012934D992F8C600E5
:10322800262830D0A3F121011346012900F2C680D7
:10323800242840F0A98092F8671092F86E310B406C
:1032480092F86E105A077AD413F0010273D19B07D3
:103258007FF55FAF042972D0082970D0012918BF03
:10326800022124E0B7F84A20BB8A93427FF427AFB3
:10327800B5F8782013440122A7F84A3095F87A0067
:1032880017F034FB1BE792F8BE3392F86E10002B50
:103298003FF43FAF082952D0042950D0082B4ED014
:1032A800042B4CD0012901D0012B15D10121A88F65
:1032B80035E793F81A2393F86E10002A3FF429AFE4
:1032C80008293CD004293AD0082A38D0042A36D014
:1032D8000129EBD0012AE9D00221E8E7280C0021D6
:1032E80050000021B00C0021032100220B463D496B
:1032F8000092FB2214F0BAFC0120FFF7F9FB3A4BCD
:10330800D3F8503523F00803032B66D00023B98A7D
:1033180097F83320A360C4E900332B8861802271B9
:10332800238005B0BDE8F08397F823305BB901200E
:10333800FFF730FDE3E7042901D0082946D1082129
:103348004FF42960EBE695F86F300122D7E92001A8
:10335800013B84F8A020C4E92601072B0FD8DFE839
:1033680003F005290E040E0E0E2B0326002133460A
:103378004246012000911B4914F078FCD7E740F23F
:10338800C5310620FDF7F6FB92F86E3192F86E1003
:103398005A07D4D413F0010214D198077FF5B9AEB7
:1033A8000829CCD004297FF459AFC8E701219CE74C
:1033B80002219AE70126D9E70226D7E724287FF4D5
:1033C800A3AE38E70829BAD00429B8D011466EE769
:1033D80040F253112720FDF7CDFB4FF4027127204F
:1033E800FDF7C8FBB00C00210080004110B5174C58
:1033F80094F84430DBB194F824307BB194F844302D
:10340800022B1ED1A36AD3F8F00215F02DF9A36A96
:1034180093F87B200AB9596F61B910BD94F844300C
:10342800012BF4D04FF408712720FDF7A3FBFFF719
:103438002DFBECE7114693F87A00BDE8104017F031
:1034480055BA4FF409712720FDF794FB280C002189
:10345800FFF71CBB014B1876704700BF280C0021F2
:10346800014B93F8B0007047280C0021024B188ECE
:10347800C0F38020704700BF280C0021014B93F84F
:10348800C4007047280C00212DE9F0411E4F820727
:1034980082B00546BC6A0E4604F1A80411D4EB07B5
:1034A8000CD5217ED4E92032013342F100020129F2
:1034B800C4E920320CBF00230123237602B0BDE803
:1034C800F081BB6BDBB1B7F8BC201846F96A033250
:1034D80091F801801AF0AEF90DF1020201A9F86223
:1034E800D7F8C8001BF085FD01981BF046FD0122A6
:1034F80030604146D7F8C8001BF06FFCCFE740F2B8
:103508005F412720FDF736FB280C00212DE9F04705
:10351800002386B0A84C06468DF80F300F46A56AE2
:10352800CDE9043394F84430A835022B5FFA83F8C8
:1035380040F09081238E13F0400106D1636B402048
:103548009847238E43F040032386002E61D095F8D8
:103558002330002B40F01081E36A597889B2A4F82F
:10356800BC10002940F01C810022A2631A78E87D73
:10357800238EC2F3800143F480738842238600F0CF
:10358800E580A16A94F8240001F1A80999F81610B9
:10359800D9B1022900F04481002189F8161020B120
:1035A80099F81230002B40F0318199F81130002B36
:1035B80040F0088199F81730012B0CBF0023012334
:1035C80089F81730E36A1A78238E43F480634FF042
:1035D80000092386C2F3C0022B7E934228D103F050
:1035E8000DFF002800F0C380E26A137803F003039C
:1035F800013B012B00F2BB80527894F8CC309A4200
:1036080040F2B58094F83D3043F0100384F83D3023
:103618000EE095F82320002A40F0C98043F4007397
:103628004FF00009238694F8C430013384F8C4307D
:1036380095F822303BB394F8243041F64B52B3FA54
:1036480083F35B0984F8A030A36A586993F86E1075
:10365800904294BF042000200139D5E91E23C4E913
:103668002623072900F2CA80DFE801F07E04C87B20
:10367800C8C8C8064FF00108002243464F490092C7
:10368800FB2214F0F3FA002F49D194F8C430012B2F
:1036980045D8D4F8C0300120984700283FD094F886
:1036A8003D30002B3BD10120FFF72CFB07460028BB
:1036B80035D1FFF71DFA9DF80F30002B36D1B9F13F
:1036C800000F08D094F82430002B41D1B4F8093009
:1036D8000133A4F8093076B3B4F805300022013379
:1036E80084F8C420A4F80530354804F05DFE049839
:1036F80040B11BF042FCA16A00230822013003728A
:1037080003F05AFB059B33B1A16A002010221872FE
:10371800059803F051FBA7B906B0BDE8F08715F08E
:1037280099F89DF80F300127002BC8D005A9022071
:10373800FFF7AAFEC3E7B4F807300133A4F807304F
:10374800D2E7FFF7A3F906B0BDE8F087B14641E735
:10375800B4F80530B4F80710AA8A0B431343BAD05B
:10376800B4E74FF0030887E74FF0000884E70DF14E
:103778000F00FFF743F95BE714F07AFB14F05CFBEA
:10378800E36A597800287FF4E9AE00293BD01B781A
:103798002A7EC3F3C0039A4256D089B2A4F8BC105B
:1037A800D4F8C8001BF0A4FAE36AA063DEE614F0BC
:1037B80099FB238E32E700BF280C0021B00C0021B2
:1037C8004C0C00214FF0000A89F811A0FFF706F809
:1037D800002849D0638E5146082043F008036386C9
:1037E800636B9847D9F878300133C9F87830D9F83D
:1037F8007C3043F10003C9F87C30DBE640F2C53188
:103808000620FDF7B7F9A4F8BC10ADE6638E1020CA
:1038180089F8121043F010036386636B9847C4E677
:1038280004A9D4F880001BF03EF9C0B1D9F878306B
:1038380094F824000133C9F87830D9F87C3043F182
:103848000003C9F87C30A7E6012384F83E30FFF76F
:103858001DF961E740F2E2412720FDF78BF940F2BC
:10386800DD312720FDF786F94FF47D712720FDF71C
:1038780081F900BF712D000115350001552E000199
:10388800E52A00016E4B2DE9F0475A781C18013AD9
:1038980094F802C1D2B282425A7036D168B393F812
:1038A800022162452FD0012827D093F803216245D1
:1038B80029D0022821D093F80421624523D0032877
:1038C8001BD093F8052162451DD0042815D093F824
:1038D8000621624517D005280FD093F807216245C5
:1038E80011D0062809D093F8082162450BD0072883
:1038F80003D093F80921624505D01A78013AD2B26B
:1039080094451A7043D1BDE8F0871101060100EB18
:103918004000B71C82364FEA400E881C82311D18C1
:1039280053F800A0D8190EF5857ED5F80490D5F87F
:103938000880ED6843F807A0C0F80490C0F8088034
:10394800C560581853F8018002EB4201D0F8049082
:103958001A4487684900C568981943F8068001F534
:103968008571C0F804908760C56092F8020184F8F8
:1039780002015818595843F80E1003EB0E018088BD
:10398800888092F83A21587884F83A2186E7C2EB81
:10399800C202CCEBCC0102F5A97201F5A9719C58C1
:1039A8001A4458185C50918894795A7881808471A7
:1039B8001978002AA7D093F80201884231D0012A49
:1039C800A1D093F8030188422DD0022A9BD093F806
:1039D800040188422BD0032A95D093F80501884228
:1039E80023D0042A8FD093F80601884221D0052AD3
:1039F80089D093F8070188421FD0062A83D093F80C
:103A08000801884217D0072A3FF47DAF93F80921AF
:103A18008A427FF478AF0722134483F802C1BDE8D5
:103A2800F0870022F8E70122F6E70322F4E70222F2
:103A3800F2E70422F0E70622EEE70522ECE700BFF2
:103A4800F80C0021044B5A78824203D9184490F8A4
:103A58004A01704700207047F80C0021044B5A783F
:103A6800824203D9184490F84201704700207047F9
:103A7800F80C002108B5084B4FF4C5720021184610
:103A880019F04EFF00224FF4617180F88A2180F806
:103A98008B21A0F88C1108BDF80C0021014B83F88C
:103AA8008B017047F80C0021014B93F88B0170478C
:103AB800F80C0021D54B2DE9F04393F80080B8F1BC
:103AC800000F00F03A8191F800C04F7893F8544104
:103AD80093F853517C4093F855918CEA050591F879
:103AE80004E02C4493F8525145402C448D7885EAE3
:103AF800090909EB0406CC7893F8569184EA090978
:103B0800B1444E7993F857118EEA0101894493F82C
:103B18005811714011EB090100F01381B8F1010F40
:103B280000F00B8193F85A1193F85B918CEA01012C
:103B380087EA0909494493F8599180EA09094944EF
:103B480093F85C9185EA0909894493F85D1161400D
:103B5800894493F85E118EEA0101494493F85F9114
:103B680086EA090919EB010F00F0EA80B8F1020FA3
:103B780000F0E38093F8611193F862918CEA0101F7
:103B880087EA0909494493F8609180EA0909494498
:103B980093F8639185EA0909894493F864116140AF
:103BA800894493F865118EEA0101494493F86691B6
:103BB80086EA090919EB010F00F00881B8F1030F33
:103BC80000F0BB8093F8681193F869918CEA0101C1
:103BD80087EA0909494493F8679180EA0909494441
:103BE80093F86A9185EA0909894493F86B11614051
:103BF800894493F86C118EEA0101494493F86D9158
:103C080086EA090919EB010F00F0E280B8F1040F08
:103C180000F0938093F86F1193F870918CEA01018A
:103C280087EA0909494493F86E9180EA09094944E9
:103C380093F8719185EA0909894493F872116140F2
:103C4800894493F873118EEA0101494493F87491F9
:103C580086EA090919EB010F00F0BF80B8F1050FDA
:103C68006BD093F8761193F877918CEA010187EA83
:103C78000909494493F8759180EA0909494493F878
:103C8800789185EA0909894493F879116140894452
:103C980093F87A118EEA0101494493F87B9186EAF8
:103CA800090919EB010F00F09D80B8F1060F44D007
:103CB80093F87D1193F87E918CEA010187EA09094E
:103CC800494493F87C9180EA0909494493F87F9123
:103CD80085EA0909894493F880116140894493F879
:103CE80081118EEA0101494493F8829186EA090913
:103CF80019EB010F7BD0B8F1070F1ED093F8841190
:103D08008CEA010C93F885114F4093F88311BC4459
:103D1800484093F8861160444D4093F88711284431
:103D28004C4093F8881120448EEA010E93F88911CB
:103D380086444E4016EB0E0F46D00120BDE8F083B6
:103D4800012158780028F8D093F802418C4241D0DC
:103D58000128F2D093F803418C4240D00228ECD0DD
:103D680093F804418C423FD00328E6D093F80541EC
:103D78008C423ED00428E0D093F806418C423BD0D8
:103D88000528DAD093F807418C4238D00628D4D0D9
:103D980093F808418C4235D00728CED093F8090112
:103DA8008842CAD1072108461AB110705A7882424F
:103DB800C3D90B4493F83A2193F84A01012A08BF62
:103DC80040F00100BDE8F0830721BAE70221B8E717
:103DD8000321B6E700210846E6E70421B1E70121FF
:103DE8000846E1E70521ACE702210846DCE70621A1
:103DF800A7E703210846D7E704210846D4E70521A9
:103E08000846D1E706210846CEE700BFF80C002196
:103E18002DE9F84FC94C16461F462578002D00F0AD
:103E28004C8191F800C094F853A194F852E18CEABF
:103E38000A0A91F8019080EA0E0E91F80280CA7879
:103E4800F24494F854E10B7989EA0E0E94F858B1CB
:103E5800F24494F855E188EA0E0ED64494F856A137
:103E680082EA0A0AD64494F857A183EA0A0AF24475
:103E780091F805E08EEA0B0B1BEB0A0A00F026818D
:103E8800012D00F05D8194F85BA189EA0A0B94F892
:103E98005AA18CEA0A0ADA4494F859B180EA0B0B61
:103EA800DA4494F85CB188EA0B0BDA4494F85DB113
:103EB80082EA0B0BDA4494F85EB183EA0B0BDA441E
:103EC80094F85FB18EEA0B0B1BEB0A0F00F07E81B2
:103ED800022D00F0358194F861A18CEA0A0B94F860
:103EE80062A189EA0A0ADA4494F860B180EA0B0B05
:103EF800DA4494F863B188EA0B0BDA4494F864B1B5
:103F080082EA0B0BDA4494F865B183EA0B0BDA44C6
:103F180094F866B18EEA0B0B1BEB0A0F00F0588180
:103F2800032D00F00D8194F868A18CEA0A0B94F82F
:103F380069A189EA0A0ADA4494F867B180EA0B0BA6
:103F4800DA4494F86AB188EA0B0BDA4494F86BB156
:103F580082EA0B0BDA4494F86CB183EA0B0BDA446F
:103F680094F86DB18EEA0B0B1BEB0A0F00F032814F
:103F7800042D00F0E58094F86FA18CEA0A0B94F800
:103F880070A189EA0A0ADA4494F86EB180EA0B0B48
:103F9800DA4494F871B188EA0B0BDA4494F872B1F8
:103FA80082EA0B0BDA4494F873B183EA0B0BDA4418
:103FB80094F874B18EEA0B0B1BEB0A0F00F00C811E
:103FC800052D00F0BD8094F876A18CEA0A0B94F8D0
:103FD80077A189EA0A0ADA4494F875B180EA0B0BEA
:103FE800DA4494F878B188EA0B0BDA4494F879B19A
:103FF80082EA0B0BDA4494F87AB183EA0B0BDA44C1
:1040080094F87BB18EEA0B0B1BEB0A0F00F0E680ED
:10401800062D00F0958094F87DA18CEA0A0B94F89F
:104028007EA189EA0A0ADA4494F87CB180EA0B0B8B
:10403800DA4494F87FB188EA0B0BDA4494F880B13B
:1040480082EA0B0BDA4494F881B183EA0B0BDA4469
:1040580094F882B18EEA0B0B1BEB0A0F00F0C080BC
:10406800072D00F0BF8094F884118CEA010C94F8B5
:10407800851189EA01018C4494F88311484094F829
:104088008611844488EA01018C4494F887114A40D7
:1040980094F8881162444B40134494F889218EEABD
:1040A800020E1EEB030F00F0A4806378072B40F28A
:1040B800A28007252846BDE8F88F6378072BF8D833
:1040C80001232A46237040F2531345E0554663788E
:1040D800002B4DD094F80221AA4273D0012B47D06F
:1040E80094F80321AA426DD0022B41D094F8042100
:1040F800AA4267D0032B3BD094F80521AA4261D08D
:10410800042B35D094F80621AA425BD0052B2FD07A
:1041180094F80721AA4255D0062B29D094F80821F3
:10412800AA424FD0072B23D094F80931AB420CBFD9
:10413800122507252846BDE8F88F00BFF80C002196
:104148006378072BB5D86B1C072D237055D8C5EBA2
:10415800C503EA0003F25313D1F800C0521B44F818
:1041680003C02344898822449980637882F85201E5
:104178004FEA03195A1C314604EB030809F10200FF
:1041880062701022204401F037F809F182001022F1
:104198003946204401F030F81021384600F0C0FFBD
:1041A80003461021304688F8423100F0B9FF002359
:1041B80088F802511D4688F84A0188F83A3128469D
:1041C800BDE8F88F12252846BDE8F88F01257EE75F
:1041D80002257CE703257AE7042578E7052576E7B5
:1041E800062574E76378072B3FF664AF082323702E
:1041F800ADE707256BE70135257043212820FCF73B
:10420800B9FC00BFC94B1A78002A00F038812DE9A3
:10421800F04191F800C04F7893F8544193F8535106
:104228007C4093F855818CEA050591F804E02C440C
:1042380093F8525145402C448D7885EA080808EBDC
:104248000406CC7893F8568184EA0808B0444E797D
:1042580093F857118EEA0101884493F85811714078
:1042680011EB080100F00D81012A00F0058193F897
:104278005A1193F85B818CEA010187EA08084144E6
:1042880093F8598180EA0808414493F85C8185EAEB
:104298000808884493F85D116140884493F85E11DA
:1042A8008EEA0101414493F85F8186EA080818EB19
:1042B800010F00F02081022A00F0DE8093F86111DE
:1042C80093F862818CEA010187EA0808414493F86F
:1042D800608180EA0808414493F8638185EA080808
:1042E800884493F864116140884493F865118EEA14
:1042F8000101414493F8668186EA080818EB010F2A
:1043080000F0FB80032A00F0B78093F8681193F857
:1043180069818CEA010187EA0808414493F86781BA
:1043280080EA0808414493F86A8185EA08088844C5
:1043380093F86B116140884493F86C118EEA01017F
:10434800414493F86D8186EA080818EB010F00F0E4
:10435800D680042A00F0908093F86F1193F870814A
:104368008CEA010187EA0808414493F86E8180EAE3
:104378000808414493F8718185EA0808884493F84D
:1043880072116140884493F873118EEA0101414427
:1043980093F8748186EA080818EB010F00F0B380DF
:1043A800052A69D093F8761193F877818CEA010190
:1043B80087EA0808414493F8758180EA080841446F
:1043C80093F8788185EA0808884493F87911614060
:1043D800884493F87A118EEA0101414493F87B816D
:1043E80086EA080818EB010F00F09180062A43D0EE
:1043F80093F87D1193F87E818CEA010187EA080819
:10440800414493F87C8180EA0808414493F87F810D
:1044180085EA0808884493F880116140884493F835
:1044280081118EEA0101414493F8828186EA0808E5
:1044380018EB010F6FD0072A1ED093F884218CEA5D
:10444800020C93F88521574093F88321BC445040CF
:1044580093F886216044554093F8872128445440B6
:1044680093F8882120448EEA020E93F88921864425
:10447800564016EB0E0F3CD00020BDE8F0811046E8
:1044880070470A4658780028F7D093F802119142ED
:1044980037D00128F0D093F80311914235D0022883
:1044A800EAD093F80411914233D00328E4D093F86A
:1044B8000511914231D00428DED093F806119142BB
:1044C8002DD00528D8D093F80711914229D0062875
:1044D800D2D093F80811914225D00728CCD093F870
:1044E80009319342C8D10720FFF7CCF90120BDE874
:1044F800F0810722C6E70122C4E70222C2E70322AD
:10450800C0E70020F0E70422BCE70120ECE7052221
:10451800B8E70220E8E70622B4E70320E4E704202E
:10452800E2E70520E0E70620DEE700BFF80C0021FF
:10453800084B5878013840B2002809DB10B5C4B2DE
:104548002046FFF79FF9601E40B2431CF7D110BD0B
:10455800704700BFF80C0021014B83F88A017047AF
:10456800F80C0021014B93F88A017047F80C0021E0
:10457800421E4AF2B711034692B28A4204D8034A4D
:104588000120A2F88C31704700207047F80C0021F8
:10459800014BB3F88C017047F80C0021C74B2DE98B
:1045A800F0431F78002F00F0338191F800C04E7857
:1045B80093F8542193F8534172408D788CEA04049F
:1045C80093F8559193F85681224493F8524185EA1D
:1045D800090991F804E044402244CC7849794A44D6
:1045E80084EA080808EB020993F857818EEA080262
:1045F80002EB090893F858214A4012EB080200F030
:104608000A81012F00F0048193F85B2193F85A8105
:1046180072408CEA0808424493F8598180EA0808F5
:10462800424493F85C8185EA0808904493F85D2138
:104638006240904493F85E218EEA0202424493F865
:104648005F8181EA080818EB020F00F01C81022F35
:1046580000F0DE8093F8612193F862818CEA02020F
:1046680086EA0808424493F8608180EA08084244D0
:1046780093F8638185EA0808904493F864216240BE
:10468800904493F865218EEA0202424493F86681C9
:1046980081EA080818EB020F00F0F780032F00F0FA
:1046A800B78093F8682193F869818CEA020286EA58
:1046B8000808424493F8678180EA0808424493F85E
:1046C8006A8185EA0808904493F86B216240904417
:1046D80093F86C218EEA0202424493F86D8181EAD4
:1046E800080818EB020F00F0D480042F00F0908027
:1046F80093F86F2193F870818CEA020286EA080821
:10470800424493F86E8180EA0808424493F8718124
:1047180085EA0808904493F872216240904493F81F
:1047280073218EEA0202424493F8748181EA0808F0
:1047380018EB020F00F0B180052F69D093F87621AD
:1047480093F877818CEA020286EA0808424493F8D3
:10475800758180EA0808424493F8788185EA080858
:10476800904493F879216240904493F87A218EEA34
:104778000202424493F87B8181EA080818EB020F91
:1047880000F08F80062F43D093F87D2193F87E8127
:104798008CEA020286EA0808424493F87C8180EA9F
:1047A8000808424493F87F8185EA0808904493F802
:1047B80080216240904493F881218EEA02024244AB
:1047C80093F8828181EA080818EB020F6DD0072F51
:1047D8001ED093F884218CEA020C93F88521564068
:1047E80093F88321B444504093F88621604455409F
:1047F80093F887212844544093F8882120448EEA6E
:10480800020E93F889218644514011EB0E0F38D0DF
:104818000820BDE8F08310465A78002AF8D093F8AB
:104828000211814233D0012AF2D093F80311814258
:1048380031D0022AECD093F8041181422FD0032AF8
:10484800E6D093F8051181422DD0042AE0D093F8E0
:10485800061181422BD0052ADAD093F8071181423C
:1048680027D0062AD4D093F80811814223D0072AEA
:10487800CED093F80931834214BF08200720BDE841
:10488800F0830720C8E70120C6E70220C4E700201C
:10489800BFE70320C0E70120BBE70420BCE70220F4
:1048A800B7E70520B8E70320B3E70620B4E70420FC
:1048B800AFE70520ADE70620ABE700BFF80C002105
:1048C800044B5A78824203D903EB001082307047B8
:1048D80000207047F80C0021044B5A78824203D913
:1048E80003EB00100230704700207047F80C0021DD
:1048F80010B40D4C6378834202D8002010BC704776
:10490800204490F80231C3EBC303E01803F25313B9
:1049180090F852010870E118E358012010BC1360A8
:104928008B889380704700BFF80C002170B506464D
:104938000D4613F00BFF13F005F90A4B93F88A4163
:1049480014B1597811B90C46204670BD981C8233B1
:104958003246002D08BF184613F0C0F813F018F9B6
:10496800204670BDF80C002108B513F027F908B9E6
:10497800FF2008BDBDE8084013F056B913F01EB972
:104988008C460246012108B5054B03EB0C1303F1D5
:10499800820013F0A3F8BDE8084013F0F9B800BF8F
:1049A800F80C0021074B10B593F88A4114B15978D7
:1049B80011B90C46204610BD0246981C13F08EF81B
:1049C800204610BDF80C0021F8B5114D6E7856B18F
:1049D800002407462346E91891F8421121B1013411
:1049E800E3B2B342F7D3F8BD03EB4301013405EB5F
:1049F80003133A4605EB410103F1820001F5857185
:104A0800FDF7B4FF6E78E3B2B342E4D3F8BD00BF5C
:104A1800F80C0021084B5A7882420AD91A1892F8E1
:104A2800422132B900EB400003EB400000F58570ED
:104A380070470020704700BFF80C002101EB4101CE
:104A4800044B0268490001F585715A50194483885E
:104A58008B807047F80C0021064B5A78824206D9A1
:104A6800184490F83A01B0FA80F0400970470020E5
:104A7800704700BFF80C00212DE9F0470C460546A9
:104A880006211746204600F04BFB064650B1DA488F
:104A9800427822B1394600F59D7018F041FF304642
:104AA800BDE8F087D44B93F80080B8F1000FF6D03A
:104AB800207894F801E093F8542193F853118EEA82
:104AC800020294F802C0414093F855A193F8569118
:104AD8000A4493F852118CEA0A0A69400A44E178B8
:104AE800524481EA090909EB020A227993F857919D
:104AF800647982EA0909D14493F858A184EA0A0A38
:104B08001AEB090F00F05B81B8F1010FC7D093F8D9
:104B18005A9193F85BA180EA09098EEA0A0AD144FE
:104B280093F859A185EA0A0AD14493F85CA18CEA62
:104B38000A0ACA4493F85D9181EA0909CA4493F8BC
:104B48005E9182EA0909D14493F85FA184EA0A0ACE
:104B58001AEB090F00F03581B8F1020F9FD093F8D6
:104B6800619193F862A180EA09098EEA0A0AD144A0
:104B780093F860A185EA0A0AD14493F863A18CEA04
:104B88000A0ACA4493F8649181EA0909CA4493F865
:104B9800659182EA0909D14493F866A184EA0A0A70
:104BA8001AEB090F00F00F81B8F1030F3FF477AF4C
:104BB80093F8689193F869A180EA09098EEA0A0ACC
:104BC800D14493F867A185EA0A0AD14493F86AA107
:104BD8008CEA0A0ACA4493F86B9181EA0909CA4423
:104BE80093F86C9182EA0909D14493F86DA184EA9B
:104BF8000A0A1AEB090F00F0EA80B8F1040F3FF433
:104C08004EAF93F86F9193F870A180EA09098EEA84
:104C18000A0AD14493F86EA185EA0A0AD14493F8A6
:104C280071A18CEA0A0ACA4493F8729181EA0909C7
:104C3800CA4493F8739182EA0909D14493F874A19C
:104C480084EA0A0A1AEB090F00F0C580B8F1050FCB
:104C58003FF425AF93F8769193F877A180EA090994
:104C68008EEA0A0AD14493F875A185EA0A0AD14462
:104C780093F878A18CEA0A0ACA4493F8799181EAF0
:104C88000909CA4493F87A9182EA0909D14493F848
:104C98007BA184EA0A0A1AEB090F00F0A080B8F198
:104CA800060F3FF4FCAE93F87D9193F87EA180EA5D
:104CB80009098EEA0A0AD14493F87CA185EA0A0A0E
:104CC800D14493F87FA18CEA0A0ACA4493F88091E8
:104CD80081EA0909CA4493F8819182EA0909D14411
:104CE80093F882A184EA0A0A1AEB090F7BD0B8F17B
:104CF800070F3FF4D4AE93F8848180EA080093F854
:104D080085818EEA080E704493F883E185EA0E05E2
:104D1800054493F886018CEA000C93F887016544F2
:104D2800414093F88801294442400A4493F8891184
:104D38004C40D4427FF4B3AE07215A78002A3FF49E
:104D4800AEAE93F8020188423FD0012A3FF4A7AEE5
:104D580093F8030188423CD0022A3FF4A0AE93F8AE
:104D68000401884239D0032A3FF499AE93F805012B
:104D7800884236D0042A3FF492AE93F8060188425E
:104D880033D0052A3FF48BAE93F8070188422ED022
:104D9800062A3FF484AE93F80801884229D0072AEE
:104DA8003FF47DAE93F809218A427FF478AE07225A
:104DB8001344012683F83A713046BDE8F08731463E
:104DC800BBE70121B9E70221B7E70022F0E7032199
:104DD800B3E70122ECE70421AFE70222E8E7052167
:104DE800ABE70322E4E70621A7E70422E0E7052270
:104DF800DEE70622DCE700BFF80C0021002342F2C0
:104E0800107CA0F8482003644B1E0CFB0232B2FB56
:104E1800F1F14164704700BF70B50D4600210646A8
:104E2800FCF7A6FE686018B1002318462B7070BD09
:104E3800044601213046FCF79BFE686018B1012347
:104E480020462B7070BD022070BD00BF38B50446E7
:104E58000D4631B1012965D002292CD003295AD039
:104E680038BD4FF47C7218F05BFD49230122042100
:104E780084F817316FF03B0384F8CD20072284F8BB
:104E88001931FE232B2084F8181184F81A217F2168
:104E9800414A84F84E31202384F81B5184F81C5170
:104EA80084F81D5184F8160184F8C110C4F8B020A4
:104EB80084F8643338BD0023D0F8C423416942F232
:104EC8001075B0F8CA03A4F8F630B4F8FA3001FB4C
:104ED80003F3B3FBF2F3A4F8FA30531E05FB0030DA
:104EE800B0FBF2F0A4F8F800D4F8E80000FB01F1F8
:104EF800B1FBF2F1C4F8E8102849B1FBF2F1013135
:104F0800A4F8FE10B4F8F01005FB0133B3FBF2F37C
:104F1800C4F8EC3038BD00F1CE01CD30BDE83840E2
:104F280000F0A6BB436900251D49B0F8FA00D4F883
:104F3800E820194403FB00F003FB02F2A4F8F65240
:104F480084F8EB52A4F8F650B1FBF3F1B0FBF3F0A0
:104F5800B2FBF3F2C4F8EC1040F6B831A4F8FA004A
:104F6800581EC4F8E820A4F8F01042F21071E28B41
:104F780001FB0200094A04F1CE01B2FBF3F2B0FBD7
:104F8800F3F3013204F1CD00A4F8F830A4F8FE20C0
:104F9800BDE8384000F06CBB00E0FCFF005A62023C
:104FA8007FC3C90138B504460D4631B1012965D022
:104FB80002292CD003295AD038BD4FF4587218F062
:104FC800AFFC49230122042184F817316FF03B0319
:104FD80084F8CD20072284F81931FE232B2084F889
:104FE800181184F81A217F213F4A84F84E31202372
:104FF80084F81B5184F81C5184F81D5184F816015B
:1050080084F8C110C4F8B02084F8013338BD0023F7
:10501800D0F82823416942F21075B0F82E03A4F89D
:10502800F630B4F8FA3001FB03F3B3FBF2F3A4F85B
:10503800FA30531E05FB0030B0FBF2F0A4F8F8007C
:10504800D4F8E80000FB01F1B1FBF2F1C4F8E81074
:105058002649B1FBF2F10131A4F8FE10B4F8F010C2
:1050680005FB0133B3FBF2F3C4F8EC3038BD00F1B3
:10507800CE01CD30BDE8384000F0FABA436942F2BB
:1050880010751B4AB0F8FA001A44D4F8E81003FB6C
:1050980000F003FB01F1B2FBF3F2B0FBF3F0C4F84C
:1050A800EC2040F6B832A4F8FA00581EA4F8F02014
:1050B800E28B05FB02000D4AB1FBF3F1B2FBF3F200
:1050C800B0FBF3F30132A4F8F8300023C4F8E81079
:1050D80004F1CD0004F1CE01A4F8FE20A4F8F630C6
:1050E800BDE8384000F0C4BA00E0FCFF005A620294
:1050F8007FC3C90170B5047934F01F040ED1451E71
:10510800061D15F8010F02F007FA0444B542E4B28F
:10511800F7D1012C94BF0020012070BD002070BD84
:10512800002964D04B1E062B00B562D98B0800F10C
:10513800040E02464FF0000C013BDBB20EEB830E6F
:1051480052F8043B724543EA0C0CF9D1CCF307231F
:10515800CCF307424CEA0303134301F0FC0243EA91
:105168001C6331F0FC0CDBB23CD010F802C043EAFF
:105178000C0302F1010C5FFA8CFC614532D910F87E
:105188000CC043EA0C0302F1020C5FFA8CFCDBB2A0
:10519800614527D910F80CC043EA0C0302F1030C4F
:1051A8005FFA8CFC61451DD910F80CC043EA0C036A
:1051B80002F1040C5FFA8CFC614513D910F80CC09D
:1051C80043EA0C0302F1050C5FFA8CFC614509D92E
:1051D800063210F80CC0D2B243EA0C03914201D94E
:1051E800825C1343B3FA83F040095DF804FB0120A5
:1051F800704700221346B8E762B102F1FF3C0A4447
:10520800431E5FFA8CF1084412F8011D03F8011FD0
:105218009842F9D1704700BF0D2900F28380DFE87A
:1052280001F00D11171D232939454B51585E6707A9
:105238002A3A042A8CBF002001207047B2FA82F073
:1052480040097047073A012A8CBF002001207047A7
:105258000B3A022A8CBF0020012070470E3A012A1F
:105268008CBF002001207047113A0C2A8CBF002007
:1052780001207047002B41D1A2F11303012B49D91A
:1052880090F85E30002B47D0143A082A8CBF0020D3
:1052980001207047A2F11103032B3BD990F85E005F
:1052A8001D2A8CBF002000F001007047A2F1040005
:1052B800B0FA80F040097047A2F10100B0FA80F01E
:1052C8004009704703BBA2F10500B0FA80F040091D
:1052D80070471E3A022A8CBF002001207047A2F1B5
:1052E80021002F2A18BF062894BF012000207047EC
:1052F800A2F12900B0FA80F040097047123A0B2A4F
:105308008CBF002001207047A2F11000B0FA80F095
:105318004009704701207047183A042A8CBF0020C2
:105328000120704700207047F8B504460D46D0E9C3
:10533800046715F051FD08B3DDB1236962699B1B51
:1053480062EB0702012B72F1000114DB6FF0010020
:105358000021984271EB020215DB6A1E1344B3FB6D
:10536800F5F303FB05F5AE191D4647F10007C4E93F
:1053780004672846F8BD00252846F8BD40F2D31139
:105388002920FBF7F7FB40F2DD112920FBF7F2FBA0
:1053980011F00C030CD04B0712D44FF47473402255
:1053A8009842194612D9401A90FBF2F080B2704721
:1053B80002290DD0702809D97038C0F3CF00704782
:1053C80040F20E23102298421946ECD8002070476C
:1053D8003C28FBD93C38C0F38F0070470B68C0F8F5
:1053E8006A307047013908B5072914D8DFE801F099
:1053F800071013041313130440F6A66008BD0346F0
:1054080040F2E24240F6C410002B08BF104608BD27
:1054180040F6C41008BD4FF41C712920FBF7AAFB05
:1054280080F8721010F0F6BD41F27073A0F57A7230
:105438009A4205D9064BA3FB0030C0F38F20704772
:10544800044BA3FB0030800900F5506080B2704720
:105458005917B7D1D34D62106FF45063C318062B98
:1054680004D940F2E24303FB00F070474FF47A732B
:10547800A0F5506003FB00F0704700BF41F64B53A6
:10548800994208D9C0EB401300EB830000EB800081
:10549800400080B2704700EB800000EB8000800085
:1054A800704700BF41F64B53994205D9054BA3FB02
:1054B8000030C0F387207047034BA3FB0030C0F3D4
:1054C800471070475917B7D11F85EB5141F64B5319
:1054D800994294BF642340F2E24303FB00F0704713
:1054E80041F64B53994205D9054BA3FB0030C0F355
:1054F8008F207047034BA3FB0030C0F34F10704759
:105508005917B7D11F85EB5141F64B53994209D929
:10551800094B40F2E242A3FB00139B0A02FB130370
:10552800C01A7047054B6422A3FB00135B0902FBFA
:105538001303C01A704700BF5917B7D11F85EB5125
:10554800A0F5EC70884294BF091A491A1868012915
:1055580010B400EB510494BF002001201C601368B4
:1055680010BCA3EB51011160704700BF074B93F9C2
:1055780000301844142804DC10F17F0F03DB40B21C
:105588007047142070476FF07E007047860E002128
:1055980000B583B07F230DF107008DF8073013F0B5
:1055A800E3F820B99DF9070003B05DF804FB0A4A47
:1055B8009DF907305078404240B21844142806DC60
:1055C80010F17F0F05DB40B203B05DF804FB142037
:1055D800EAE76FF07E00E7E7860E0021024B002223
:1055E8001A705A70704700BF860E0021074B1A7850
:1055F80003463AB906490122086809791860104635
:105608001971704700221046704700BF880E0021AC
:1056180010000021034606494FF0FF0C054A0068B8
:105628001B7982F800C008600B7100231370704763
:1056380010000021880E00210A4B82B093E8030075
:1056480000908DF8041002AB074A4FF0FF0C13E9E5
:105658000300064B1060117183F800C000221A7015
:1056680002B07047A835030110000021880E002100
:1056780070B5441C05468C4204D00B68C0F8013054
:105688000B7923716B790022AE1D03F01F03EA72B8
:105698006B7114F8010B01F03FFF2071B442EB7AF3
:1056A8001844E872F5D170BD81EA1141844689B287
:1056B8004A4008B5D3B293FAA3F3120A92FAA2F2B7
:1056C800120E1B0E43EA022303EB03130B449AB298
:1056D800DBB293FAA3F3120A92FAA2F2120E1B0E8D
:1056E80043EA022303EB03130B449AB2DBB293FAA7
:1056F800A3F3120A92FAA2F2120EA0481B0E43EA72
:10570800022303EB03130B444B409BB2A0FB032083
:105718001A1A00EB5200400900EBC00200EB8200AD
:105728000122181AC0F3C40100F0070E614402FAFE
:105738000EF24978114201D0C0B208BD9CF80B1096
:1057480001FB03F39CF806104FEA134E1B140EF1ED
:105758000100C2B28A425BD9501AC2B29CF8073023
:10576800934280F09A80D01AC2B29CF808309A42CC
:1057780040F2D980D01AC2B29CF809309A420AD9AC
:10578800D01AC2B29CF80A30934280F013819D214E
:105798004620FBF7EFF99CF80430D90705D5501ED1
:1057A80010F0FF0201D1032281E0980705D5501EB1
:1057B80010F0FF0201D1032238E0590705D5501E29
:1057C80010F0FF0201D103223BE0180705D5501E57
:1057D80010F0FF0201D103223BE0D90605D5501E87
:1057E80010F0FF0201D103223BE0980605D5501EB8
:1057F80010F0FF0201D103223BE0590600F11881A5
:105808001806BFD5501E10F0FF02BBD1032242E09C
:105818009CF80110C80703D5002B00F010817246D0
:105828008B0708D5501E10F0FF0204D1012000EBB1
:10583800C200C0B208BD480705D5501E10F0FF02CF
:1058480001D10220F3E70B0705D5501E10F0FF0227
:1058580001D10320EBE7C80605D5501E10F0FF0262
:1058680001D10420E3E78B0605D5501E10F0FF0296
:1058780001D10520DBE7480605D5501E10F0FF02D0
:1058880001D10620D3E70B067FF568AF501E10F054
:10589800FF027FF463AF0720C9E79CF8023013F0DA
:1058A800010106D0501E10F0FF0202D10A46002066
:1058B800BDE7980705D5501E10F0FF0201D101225F
:1058C800B4E7590705D5501E10F0FF0201D1012297
:1058D800B7E7180705D5501E10F0FF0201D10122C5
:1058E800B7E7D90605D5501E10F0FF0201D10122F5
:1058F800B7E7980605D5501E10F0FF0201D1012226
:10590800B7E7590605D5501E10F0FF0201D1012254
:10591800B7E718067FF529AF501E10F0FF027FF495
:1059280024AF0122B7E79CF80330D90705D5501EEC
:1059380010F0FF0201D10222B9E7980705D5501EE1
:1059480010F0FF0201D1022270E7590705D5501E59
:1059580010F0FF0201D1022273E7180705D5501E87
:1059680010F0FF0201D1022273E7D90608D5501EB4
:1059780010F0FF0204D1022273E700BF4D91CFBAA5
:10598800980605D5501E10F0FF0201D1022270E7DB
:10599800590605D5501E10F0FF0201D1022270E70A
:1059A80018067FF5E9AE501E10F0FF027FF4E4AE52
:1059B800022270E79CF80530D90705D5501E10F073
:1059C800FF0201D1042272E7980705D5501E10F096
:1059D800FF0201D1042229E7590705D5501E10F00E
:1059E800FF0201D104222CE7180705D5501E10F03C
:1059F800FF0201D104222CE7D90613D4980603D557
:105A0800501E10F0FF021CD0590603D5501E10F08E
:105A1800FF0218D01B067FF5BAAE012A7FF4B7AE95
:105A2800042238E7501E10F0FF02E7D1042218E7DD
:105A3800501E10F0FF027FF4E3AE032221E71A465E
:105A480035E7042215E704221BE700BF90F830C0B1
:105A58000CF1FF33242B14D88AB110B5044690F802
:105A6800250080B1012853D1A28A04F12500896953
:105A7800FFF71AFE0346002084F8333010BD1046A5
:105A880070471220704794F8311094F8323002FBB6
:105A98000132994B83FB0213012113445B1103EB81
:105AA800C30E03EB8E03D21AD2B204EBD20384F8EE
:105AB800322093F826E002F0070301FA03F31EEA06
:105AC800030F65D194F82B10B2FBFCF30CFB1322E7
